{
  "_format": "hh-sol-artifact-1",
  "contractName": "WavePortal",
  "sourceName": "contracts/WavePortal.sol",
  "abi": [
    {
      "anonymous": false,
      "inputs": [
        {
          "indexed": true,
          "internalType": "address",
          "name": "from",
          "type": "address"
        },
        {
          "indexed": false,
          "internalType": "uint256",
          "name": "timestamp",
          "type": "uint256"
        },
        {
          "indexed": false,
          "internalType": "string",
          "name": "message",
          "type": "string"
        }
      ],
      "name": "NewWave",
      "type": "event"
    },
    {
      "inputs": [],
      "name": "getTotalWaves",
      "outputs": [
        {
          "internalType": "uint256",
          "name": "",
          "type": "uint256"
        }
      ],
      "stateMutability": "view",
      "type": "function"
    },
    {
      "inputs": [],
      "name": "getWaveMessages",
      "outputs": [
        {
          "components": [
            {
              "internalType": "address",
              "name": "userAddress",
              "type": "address"
            },
            {
              "internalType": "string",
              "name": "message",
              "type": "string"
            },
            {
              "internalType": "uint256",
              "name": "timestamp",
              "type": "uint256"
            }
          ],
          "internalType": "struct WavePortal.Wave[]",
          "name": "",
          "type": "tuple[]"
        }
      ],
      "stateMutability": "view",
      "type": "function"
    },
    {
      "inputs": [
        {
          "internalType": "address",
          "name": "",
          "type": "address"
        }
      ],
      "name": "lastWavedAt",
      "outputs": [
        {
          "internalType": "uint256",
          "name": "",
          "type": "uint256"
        }
      ],
      "stateMutability": "view",
      "type": "function"
    },
    {
      "inputs": [
        {
          "internalType": "string",
          "name": "_message",
          "type": "string"
        }
      ],
      "name": "wave",
      "outputs": [],
      "stateMutability": "nonpayable",
      "type": "function"
    }
  ],
  "bytecode": "0x608060405234801561001057600080fd5b50610af7806100206000396000f3fe608060405234801561001057600080fd5b506004361061004c5760003560e01c80631389ba8c14610051578063449d46c01461006f5780639a2cdc081461008b578063a42a4663146100a9575b600080fd5b6100596100d9565b6040516100669190610763565b60405180910390f35b61008960048036038101906100849190610587565b61022a565b005b61009361041a565b6040516100a091906107a5565b60405180910390f35b6100c360048036038101906100be919061055e565b610426565b6040516100d091906107a5565b60405180910390f35b60606000805480602002602001604051908101604052809291908181526020016000905b8282101561022157838290600052602060002090600302016040518060600160405290816000820160009054906101000a900473ffffffffffffffffffffffffffffffffffffffff1673ffffffffffffffffffffffffffffffffffffffff1673ffffffffffffffffffffffffffffffffffffffff16815260200160018201805461018690610980565b80601f01602080910402602001604051908101604052809291908181526020018280546101b290610980565b80156101ff5780601f106101d4576101008083540402835291602001916101ff565b820191906000526020600020905b8154815290600101906020018083116101e257829003601f168201915b50505050508152602001600282015481525050815260200190600101906100fd565b50505050905090565b4260b4600160003373ffffffffffffffffffffffffffffffffffffffff1673ffffffffffffffffffffffffffffffffffffffff1681526020019081526020016000205461027791906108ac565b106102b7576040517f08c379a00000000000000000000000000000000000000000000000000000000081526004016102ae90610785565b60405180910390fd5b42600160003373ffffffffffffffffffffffffffffffffffffffff1673ffffffffffffffffffffffffffffffffffffffff16815260200190815260200160002081905550600060405180606001604052803373ffffffffffffffffffffffffffffffffffffffff16815260200183815260200142815250908060018154018082558091505060019003906000526020600020906003020160009091909190915060008201518160000160006101000a81548173ffffffffffffffffffffffffffffffffffffffff021916908373ffffffffffffffffffffffffffffffffffffffff16021790555060208201518160010190805190602001906103ba92919061043e565b506040820151816002015550503373ffffffffffffffffffffffffffffffffffffffff167f5f7e16dc676677766a70e9c5628aa6c54ddb8b6e5188e2ae1e1f17f1ffbea716428360405161040f9291906107c0565b60405180910390a250565b60008080549050905090565b60016020528060005260406000206000915090505481565b82805461044a90610980565b90600052602060002090601f01602090048101928261046c57600085556104b3565b82601f1061048557805160ff19168380011785556104b3565b828001600101855582156104b3579182015b828111156104b2578251825591602001919060010190610497565b5b5090506104c091906104c4565b5090565b5b808211156104dd5760008160009055506001016104c5565b5090565b60006104f46104ef84610815565b6107f0565b90508281526020810184848401111561050c57600080fd5b61051784828561093e565b509392505050565b60008135905061052e81610aaa565b92915050565b600082601f83011261054557600080fd5b81356105558482602086016104e1565b91505092915050565b60006020828403121561057057600080fd5b600061057e8482850161051f565b91505092915050565b60006020828403121561059957600080fd5b600082013567ffffffffffffffff8111156105b357600080fd5b6105bf84828501610534565b91505092915050565b60006105d483836106f5565b905092915050565b6105e581610902565b82525050565b60006105f682610856565b6106008185610879565b93508360208202850161061285610846565b8060005b8581101561064e578484038952815161062f85826105c8565b945061063a8361086c565b925060208a01995050600181019050610616565b50829750879550505050505092915050565b600061066b82610861565b610675818561088a565b935061068581856020860161094d565b61068e81610a70565b840191505092915050565b60006106a482610861565b6106ae818561089b565b93506106be81856020860161094d565b6106c781610a70565b840191505092915050565b60006106df600e8361089b565b91506106ea82610a81565b602082019050919050565b600060608301600083015161070d60008601826105dc565b50602083015184820360208601526107258282610660565b915050604083015161073a6040860182610745565b508091505092915050565b61074e81610934565b82525050565b61075d81610934565b82525050565b6000602082019050818103600083015261077d81846105eb565b905092915050565b6000602082019050818103600083015261079e816106d2565b9050919050565b60006020820190506107ba6000830184610754565b92915050565b60006040820190506107d56000830185610754565b81810360208301526107e78184610699565b90509392505050565b60006107fa61080b565b905061080682826109b2565b919050565b6000604051905090565b600067ffffffffffffffff8211156108305761082f610a41565b5b61083982610a70565b9050602081019050919050565b6000819050602082019050919050565b600081519050919050565b600081519050919050565b6000602082019050919050565b600082825260208201905092915050565b600082825260208201905092915050565b600082825260208201905092915050565b60006108b782610934565b91506108c283610934565b9250827fffffffffffffffffffffffffffffffffffffffffffffffffffffffffffffffff038211156108f7576108f66109e3565b5b828201905092915050565b600061090d82610914565b9050919050565b600073ffffffffffffffffffffffffffffffffffffffff82169050919050565b6000819050919050565b82818337600083830152505050565b60005b8381101561096b578082015181840152602081019050610950565b8381111561097a576000848401525b50505050565b6000600282049050600182168061099857607f821691505b602082108114156109ac576109ab610a12565b5b50919050565b6109bb82610a70565b810181811067ffffffffffffffff821117156109da576109d9610a41565b5b80604052505050565b7f4e487b7100000000000000000000000000000000000000000000000000000000600052601160045260246000fd5b7f4e487b7100000000000000000000000000000000000000000000000000000000600052602260045260246000fd5b7f4e487b7100000000000000000000000000000000000000000000000000000000600052604160045260246000fd5b6000601f19601f8301169050919050565b7f576169742033206d696e75746573000000000000000000000000000000000000600082015250565b610ab381610902565b8114610abe57600080fd5b5056fea2646970667358221220e2971f130accfa24ddec446d54cc2c0c762c21fbba1a0c3d25b5b926c39a9c5a64736f6c63430008040033",
  "linkReferences": {},
  "deployedLinkReferences": {}
}