{
  "_format": "hh-sol-artifact-1",
  "contractName": "WavePortal",
  "sourceName": "contracts/WavePortal.sol",
  "abi": [
    {
      "anonymous": false,
      "inputs": [
        {
          "indexed": true,
          "internalType": "address",
          "name": "from",
          "type": "address"
        },
        {
          "indexed": false,
          "internalType": "uint256",
          "name": "timestamp",
          "type": "uint256"
        },
        {
          "indexed": false,
          "internalType": "string",
          "name": "message",
          "type": "string"
        }
      ],
      "name": "NewWave",
      "type": "event"
    },
    {
      "inputs": [],
      "name": "getTotalWaves",
      "outputs": [
        {
          "internalType": "uint256",
          "name": "",
          "type": "uint256"
        }
      ],
      "stateMutability": "view",
      "type": "function"
    },
    {
      "inputs": [],
      "name": "getWaveMessages",
      "outputs": [
        {
          "components": [
            {
              "internalType": "address",
              "name": "userAddress",
              "type": "address"
            },
            {
              "internalType": "string",
              "name": "message",
              "type": "string"
            },
            {
              "internalType": "uint256",
              "name": "timestamp",
              "type": "uint256"
            }
          ],
          "internalType": "struct WavePortal.Wave[]",
          "name": "",
          "type": "tuple[]"
        }
      ],
      "stateMutability": "view",
      "type": "function"
    },
    {
      "inputs": [
        {
          "internalType": "address",
          "name": "",
          "type": "address"
        }
      ],
      "name": "lastWavedAt",
      "outputs": [
        {
          "internalType": "uint256",
          "name": "",
          "type": "uint256"
        }
      ],
      "stateMutability": "view",
      "type": "function"
    },
    {
      "inputs": [
        {
          "internalType": "string",
          "name": "_message",
          "type": "string"
        }
      ],
      "name": "wave",
      "outputs": [],
      "stateMutability": "nonpayable",
      "type": "function"
    }
  ],
  "bytecode": "0x608060405234801561001057600080fd5b50610af8806100206000396000f3fe608060405234801561001057600080fd5b506004361061004c5760003560e01c80631389ba8c14610051578063449d46c01461006f5780639a2cdc081461008b578063a42a4663146100a9575b600080fd5b6100596100d9565b6040516100669190610764565b60405180910390f35b61008960048036038101906100849190610588565b61022a565b005b61009361041b565b6040516100a091906107a6565b60405180910390f35b6100c360048036038101906100be919061055f565b610427565b6040516100d091906107a6565b60405180910390f35b60606000805480602002602001604051908101604052809291908181526020016000905b8282101561022157838290600052602060002090600302016040518060600160405290816000820160009054906101000a900473ffffffffffffffffffffffffffffffffffffffff1673ffffffffffffffffffffffffffffffffffffffff1673ffffffffffffffffffffffffffffffffffffffff16815260200160018201805461018690610981565b80601f01602080910402602001604051908101604052809291908181526020018280546101b290610981565b80156101ff5780601f106101d4576101008083540402835291602001916101ff565b820191906000526020600020905b8154815290600101906020018083116101e257829003601f168201915b50505050508152602001600282015481525050815260200190600101906100fd565b50505050905090565b42610384600160003373ffffffffffffffffffffffffffffffffffffffff1673ffffffffffffffffffffffffffffffffffffffff1681526020019081526020016000205461027891906108ad565b106102b8576040517f08c379a00000000000000000000000000000000000000000000000000000000081526004016102af90610786565b60405180910390fd5b42600160003373ffffffffffffffffffffffffffffffffffffffff1673ffffffffffffffffffffffffffffffffffffffff16815260200190815260200160002081905550600060405180606001604052803373ffffffffffffffffffffffffffffffffffffffff16815260200183815260200142815250908060018154018082558091505060019003906000526020600020906003020160009091909190915060008201518160000160006101000a81548173ffffffffffffffffffffffffffffffffffffffff021916908373ffffffffffffffffffffffffffffffffffffffff16021790555060208201518160010190805190602001906103bb92919061043f565b506040820151816002015550503373ffffffffffffffffffffffffffffffffffffffff167f5f7e16dc676677766a70e9c5628aa6c54ddb8b6e5188e2ae1e1f17f1ffbea71642836040516104109291906107c1565b60405180910390a250565b60008080549050905090565b60016020528060005260406000206000915090505481565b82805461044b90610981565b90600052602060002090601f01602090048101928261046d57600085556104b4565b82601f1061048657805160ff19168380011785556104b4565b828001600101855582156104b4579182015b828111156104b3578251825591602001919060010190610498565b5b5090506104c191906104c5565b5090565b5b808211156104de5760008160009055506001016104c6565b5090565b60006104f56104f084610816565b6107f1565b90508281526020810184848401111561050d57600080fd5b61051884828561093f565b509392505050565b60008135905061052f81610aab565b92915050565b600082601f83011261054657600080fd5b81356105568482602086016104e2565b91505092915050565b60006020828403121561057157600080fd5b600061057f84828501610520565b91505092915050565b60006020828403121561059a57600080fd5b600082013567ffffffffffffffff8111156105b457600080fd5b6105c084828501610535565b91505092915050565b60006105d583836106f6565b905092915050565b6105e681610903565b82525050565b60006105f782610857565b610601818561087a565b93508360208202850161061385610847565b8060005b8581101561064f578484038952815161063085826105c9565b945061063b8361086d565b925060208a01995050600181019050610617565b50829750879550505050505092915050565b600061066c82610862565b610676818561088b565b935061068681856020860161094e565b61068f81610a71565b840191505092915050565b60006106a582610862565b6106af818561089c565b93506106bf81856020860161094e565b6106c881610a71565b840191505092915050565b60006106e0600f8361089c565b91506106eb82610a82565b602082019050919050565b600060608301600083015161070e60008601826105dd565b50602083015184820360208601526107268282610661565b915050604083015161073b6040860182610746565b508091505092915050565b61074f81610935565b82525050565b61075e81610935565b82525050565b6000602082019050818103600083015261077e81846105ec565b905092915050565b6000602082019050818103600083015261079f816106d3565b9050919050565b60006020820190506107bb6000830184610755565b92915050565b60006040820190506107d66000830185610755565b81810360208301526107e8818461069a565b90509392505050565b60006107fb61080c565b905061080782826109b3565b919050565b6000604051905090565b600067ffffffffffffffff82111561083157610830610a42565b5b61083a82610a71565b9050602081019050919050565b6000819050602082019050919050565b600081519050919050565b600081519050919050565b6000602082019050919050565b600082825260208201905092915050565b600082825260208201905092915050565b600082825260208201905092915050565b60006108b882610935565b91506108c383610935565b9250827fffffffffffffffffffffffffffffffffffffffffffffffffffffffffffffffff038211156108f8576108f76109e4565b5b828201905092915050565b600061090e82610915565b9050919050565b600073ffffffffffffffffffffffffffffffffffffffff82169050919050565b6000819050919050565b82818337600083830152505050565b60005b8381101561096c578082015181840152602081019050610951565b8381111561097b576000848401525b50505050565b6000600282049050600182168061099957607f821691505b602082108114156109ad576109ac610a13565b5b50919050565b6109bc82610a71565b810181811067ffffffffffffffff821117156109db576109da610a42565b5b80604052505050565b7f4e487b7100000000000000000000000000000000000000000000000000000000600052601160045260246000fd5b7f4e487b7100000000000000000000000000000000000000000000000000000000600052602260045260246000fd5b7f4e487b7100000000000000000000000000000000000000000000000000000000600052604160045260246000fd5b6000601f19601f8301169050919050565b7f57616974203135206d696e757465730000000000000000000000000000000000600082015250565b610ab481610903565b8114610abf57600080fd5b5056fea26469706673582212205de4ccecf27dc33c9bf0a637ae6dd9638ea1744dec1af44100078bfd2e27227964736f6c63430008040033",
  "linkReferences": {},
  "deployedLinkReferences": {}
}